:020000040000FA
:0600000057EF01F01200B1
:0A0006000100CC020000940000008D
:0400100007000000E5
:0C0014008050010B05E00001935102E157
:100020000001972B0A0E0001975D06E3976B952B55
:100030000A0E955D01E3956B8050020B05E000010F
:10004000935102E10001982B0A0E0001985D06E32E
:10005000986B962B0A0E965D01E3966B00018D2B33
:100060000A0E8D5D11E38D6B8C2B060E8C5D0CE3FF
:100070008C6B0001972B0A0E975D06E3976B952B0F
:10008000060E955D01E3956B120000018E51000193
:10009000975D15E100018F510001955D10E10001B0
:1000A00090510001985D0BE1000191510001965DB6
:1000B00006E10001920503E1935101E1848084B2DD
:1000C000849012008050010B04E00001930501E1CF
:1000D0008E2B0A0E00018E5D06E38E6B8F2B0A0EAF
:1000E0008F5D01E38F6B8050020B03E0930501E10C
:1000F000902B0A0E905D06E3906B912B0A0E915D9A
:1001000001E3916B9139F00B90118A6E8F39F00BEE
:100110008E118B6E00019A39F00B99118C6E0001D3
:10012000010E926F120000018C39F00B8D118C6E54
:1001300000019539F00B97118B6E9639F00B9811E1
:100140008A6E1200D9CFE6FFE1CFD9FF030EE12678
:10015000DF6A010EDB6A020EDB6AD9CFE9FFDACF74
:10016000EAFF500EEE5CC30EEE58000EEF5809E2A7
:10017000D9CFE9FFDACFEAFFEE2A000EEE22EE2217
:10018000ECD7030EE15C02E2E16AE552E16EE55272
:10019000E7CFD9FF12000F0EC16E9268936A946A7E
:1001A000956A966A37DF80A414D0010EE66EE66A7F
:1001B000C9DFE552E552010EE66EE66AC3DFE5529D
:1001C000E55280A404D00001010E936F02D000011B
:1001D000936B0001930502E175DF01D0A4DF55DFC9
:1001E000010EE66EE66AAEDFE552E552DBD712009D
:1001F000060EF66E000EF76E000EF86E0001090096
:10020000F550856F0900F550866F03E1856701D0D1
:100210003DD00900F550806F0900F550816F09004D
:10022000F550826F09000900F550E96E0900F5509C
:10023000EA6E090009000900F550836F0900F550C6
:10024000846F09000900F6CF87F0F7CF88F0F8CF68
:1002500089F080C0F6FF81C0F7FF82C0F8FF00017F
:10026000835302E1845307E00900F550EE6E8307E3
:10027000F8E28407F9D787C0F6FF88C0F7FF89C086
:0E028000F8FF00018507000E865BBFD7120055
:02028E00000E60
:10029000F36E00EE00F0060E01D81200EA6002D004
:0E02A000EE6AFCD7F350E9601200EE6AFCD75C
:0202AE0015EE4B
:1002B00000F025EE00F0F86A019CF8EC00F065EC27
:0A02C00001F0CBEC00F0FBD71200B8
:0202CA00120020
:0402CC00000000002E
:0302D0000000002B
:00000001FF
