:020000040000FA
:06000000F9EF00F0120010
:0A00060001001002000000010000DC
:040010008800000064
:0C001400D9CFE6FFE1CFD9FF020EE126B4
:10002000DE6ADD6ADECF02F0DDCF03F03E0E025C59
:10003000030E035805E2DF2A010E01E3DB2AF2D7A3
:10004000020EE15C02E2E16AE552E16EE552E7CFC1
:10005000D9FF1200D9CFE6FFE1CFD9FF030EE12689
:10006000010EDE6EDD6A816882680101000E926F0A
:10007000010E936F100E946F010E956F0101860EA5
:10008000945D010E955944E2D9CFE9FFDACFEAFF3A
:10009000090EEE1801E1ED500BE10E0E945F000E1B
:1000A000955B0E0E925F000E935B010EDE6EDD6AB5
:1000B00092C1E9FF93C1EAFFEF50826E94C1E9FF5C
:1000C00095C1EAFFEF50816E020E9425946F000EE9
:1000D0009521956F020E9225926F000E9321936FDA
:1000E00099DF835008E1010EF36E020EF3CFDBFFC0
:1000F000DB50836E0CD0020EDB50020D020EF3CFEC
:10010000DBFFDB50836EDF2A010E01E3DB2AB6D76B
:10011000030EE15C02E2E16AE552E16EE552E7CFEF
:10012000D9FF1200936A946A956A0F0EC16E92DF2E
:04013000FED71200E4
:0C013400060EF66E000EF76E000EF86E60
:1001400001010900F5508D6F0900F5508E6F03E134
:100150008D6701D03DD00900F550886F0900F5503A
:10016000896F0900F5508A6F09000900F550E96EA2
:100170000900F550EA6E090009000900F5508B6F7F
:100180000900F5508C6F09000900F6CF8FF1F7CF09
:1001900090F1F8CF91F188C1F6FF89C1F7FF8AC1CC
:1001A000F8FF01018B5302E18C5307E00900F55081
:1001B000EE6E8B07F8E28C07F9D78FC1F6FF90C17E
:1001C000F7FF91C1F8FF01018D07000E8E5BBFD7CD
:0201D00012001B
:0E01D200000EF36E00EE00F0060E01D81200D3
:1001E000EA6002D0EE6AFCD7F350E9601200EE6AD2
:0201F000FCD73A
:0E01F20015EE00F025EE00F0F86A019C9AEC84
:0E02000000F007EC01F092EC00F0FBD71200CA
:02020E001200DC
:10021000FF00FF00FF00FF00FF00FF00FF00FF00E6
:10022000FF00FF00FF00FF00FF00FF00FF00FF00D6
:100230000100FB00F700FB000100FF000300ED00E0
:10024000ED000100FF00FF00FD00FD000100FD00CA
:10025000FD00FF0001006D006D006D00FF00FF005C
:1002600081007F007F008100FF00FF0073006D00B0
:100270006D009D00FF00FF00FF00FF00FF00FF007A
:10028000FF00FF00FF00FF00FF00FF00FF00FF0076
:08029000FF00FF00FF00FF006A
:00000001FF
