:020000040000FA
:060000001AEF04F01200EB
:020006000000F8
:06000800F2B438D1120031
:02000E00D9CF48
:10001000E6FFE1CFD9FFE652FE0EDB5009E0C80E45
:10002000DF6EDF5002E0DF06FCD7FE0EDB06F4D702
:10003000E552E552E7CFD9FF1200D9CFE6FFE1CF75
:10004000D9FFE652FE0EDB50E8B08D80E8A08D901F
:10005000FD0EDB508C6E8D82640EDF6EDF5002E091
:10006000DF06FCD78D92640EDF6EDF5002E0DF0604
:10007000FCD7E552E552E7CFD9FF1200D9CFE6FF12
:10008000E1CFD9FFE652956A969096928C6A8D9050
:100090008D92320EE66EBBDFE552DF6A030EDF5C47
:1000A0000CE2300EE66EE66AC8DFE552E552050E58
:1000B000E66EADDFE552DF2AF1D7FE0EDB503009E8
:1000C000E66EE66ABADFE552E552080EE66EE66ACB
:1000D000B4DFE552E552010EE66EE66AAEDFE552A8
:1000E000E552060EE66EE66AA8DFE552E552FD0E21
:1000F000DB500809E66EE66AA0DFE552E552FD0E28
:10010000DB5008090001806FE552E552E7CFD9FFC7
:100110001200D9CFE6FFE1CFD9FFE652FD0EDB504A
:1001200003E0400EDF6E01D0DF6AFE0EDB50DF26FB
:10013000800EDF10E66EE66A80DFE552E552E5529A
:10014000E552E7CFD9FF1200D9CFE6FFE1CFD9FFC3
:10015000FE0EDB500A0A0EE0070A0CE0010A0EE16F
:10016000010EE66EE66A69DFE552E552050EE66EBF
:100170004EDF0BD0E66AE66ACCDF06D0FE0EDBCFA0
:10018000E6FF010EE66E59DFE552E552E552E7CF94
:10019000D9FF1200D9CFE6FFE1CFD9FFFD0EDBCFAB
:1001A000F6FFFE0EDBCFF7FF0800F5500FE0FD0E67
:1001B000DBCFF6FFDB2AFE0EDBCFF7FF01E3DB2A06
:1001C0000800F550E66EC0DFE552E8D7E552E7CF0C
:1001D000D9FF1200D9CFE6FFE1CFD9FFFD0EDBCF6B
:1001E000E9FFFE0EDBCFEAFFEF500EE0FD0EDBCFA6
:1001F000E9FFDB2AFE0EDBCFEAFF01E3DB2AEF504B
:10020000E66EA2DFE552EAD7E552E7CFD9FF12004A
:100210000001808580C0E6FFE66A0FDFE552E55207
:1002200012000001809580C0E6FFE66A06DFE55215
:10023000E55212000001808380C0E6FFE66AFDDE21
:10024000E552E55212000001809380C0E6FFE66AA5
:10025000F4DEE552E55212000001808180C0E6FF25
:10026000E66AEBDEE552E55212000001809180C0A3
:10027000E6FFE66AE2DEE552E5521200DACFE4FF7D
:10028000E652F294FE0ED76E2B0ED66ECECF87F0CE
:10029000CE6A00018F81885101E08807E552E5CFE1
:1002A000DAFF1100D9CFE6FFE1CFD9FF040EE12636
:1002B000100EDE6E270EDD6E020EDB6A010EF36E8F
:1002C000030EF3CFDBFF050EF36E020EDBCFF4FF60
:1002D000F350F45C12E2020EDBCFF3FFDB2AF350A3
:1002E000E76EFB0EDBCFE9FFFC0EDBCFEAFFE7504A
:1002F000E926000EEA22EF6AE6D7020EDB6AD95041
:10030000FD0FE96EFF0EDA20EA6EEE50ED1040E0D0
:10031000FD0EDBCF10F0FE0EDBCF11F0DECF12F0C2
:10032000DDCF13F01250105C135011581DE3DECFD7
:1003300010F0DDCF11F0D950FD0FE96EFF0EDA207D
:10034000EA6E1050EE5E1150ED5A020EDB50E76E71
:10035000FB0EDBCFE9FFFC0EDBCFEAFFE750E9261F
:10036000000EEA22EF2ACBD7D9CFE9FFDACFEAFF96
:100370000A0E0B6E0C6AEECF06F0EDCF07F004EC20
:1003800004F006C0EEFF07C0EDFF020EDB2AB7D770
:10039000020EDB6A040EF36E020EDBCFF4FFF350A5
:1003A000F45C3CE2030EDB5022E0020EDB50E76E11
:1003B000FB0EDBCFE9FFFC0EDBCFEAFFE750E926BF
:1003C000000EEA22EF5013E1020EDBCFF3FFDB2A2F
:1003D000F350E76EFB0EDBCFE9FFFC0EDBCFEAFF4D
:1003E000E750E926000EEA22200EEF6ED3D7300E3A
:1003F000106E020EDBCFF3FFDB2AF350E76EFB0E2D
:10040000DBCFE9FFFC0EDBCFEAFFE750E926000E69
:10041000EA221050EF26030EDB6ABCD7300E106EB6
:10042000040EE76EFB0EDBCFE9FFFC0EDBCFEAFF2D
:10043000E750E926000EEA221050EF26050EE76E7F
:10044000FB0EDBCFE9FFFC0EDBCFEAFFE750E9262E
:10045000000EEA22EF6A040EE15C02E2E16AE55274
:10046000E16EE552E7CFD9FF1200E66AE66A51DE97
:10047000E552E552570EE66E080EE66E8BDEE5524B
:10048000E552810EE66E000EE66E89C0E6FF8AC078
:10049000E6FF08DFE552E552E552E552810EE66ED1
:1004A000000EE66E97DEE552E552010EE66EE66A54
:1004B00030DEE552E552500EE66E080EE66E6ADE5C
:1004C000E552E552810EE66E000EE66E8BC0E6FF49
:1004D0008CC0E6FFE7DEE552E552E552E552810EBB
:1004E000E66E000EE66E76DEE552E5521200D9CFDA
:1004F000E6FFE1CFD9FFFD0EDBCF10F0FE0EDBCF24
:1005000011F0D89011321032D890113210321050B0
:10051000BB6E020EE76EFD0EDBCF10F0FE0EDBCFE2
:1005200011F0E7501016116A1050E8B0BA8AE8A02E
:10053000BA9A010EE76EFD0EDBCF10F0FE0EDBCF98
:1005400011F0E7501016116A1050E8B0BA88E8A010
:10055000BA98E552E7CFD9FF1200D9CFE6FFE1CF35
:10056000D9FF020EE12600018B51895D8C518A5919
:100570003AE289518B5D106E8C518A55116E10C014
:10058000DEFFDD6ED9CFE9FFDACFEAFFEE0ED880CD
:10059000EE54020EED5402E2320E17D0D9CFE9FF2D
:1005A000DACFEAFFF40ED880EE54010EED5402E2E9
:1005B000140E0BD0D9CFE9FFDACFEAFFFA0ED880BC
:1005C000EE54000EED5403E20A0E8D2701D08D2B60
:1005D000000E8E23FF0ED8808D55030E8E5503E23C
:1005E0008D69030E8E6F89518B5D8A518C5939E26A
:1005F0008B51895D106E8A518C55116E10C0DEFFD3
:10060000DD6ED9CFE9FFDACFEAFFEE0ED880EE54E7
:10061000020EED5402E2320E17D0D9CFE9FFDACF45
:10062000EAFFF40ED880EE54010EED5402E2140EEF
:100630000BD0D9CFE9FFDACFEAFFFA0ED880EE541B
:10064000000EED5403E20A0E8D5F01D08D07000EFF
:100650008E5BFF0ED8808D55030E8E5502E28D6B9A
:100660008E6B8DC0E6FF8EC0E6FF41DFE552E5529E
:10067000020EE15C02E2E16AE552E16EE552E7CF8B
:10068000D9FF1200000E8C6E8A6E896E020E926E79
:100690000F0E936E010E946E956A070EB46E0F0ED8
:1006A000C16E040ECA6E0C0EBA6E7F0EBB6E030EC8
:1006B000CD6ECF6ACE6A870ED56EFE0ED76E2B0E2C
:1006C000D66EA00EF26E040EE66E080EE66ED6DC56
:1006D000E552E5520C0EE66E37DDE5520001030EE1
:1006E000886F120000018751480DF3CF89F0F4CFD5
:1006F0008AF033DF00018F911200D9CFE6FFE1CFFE
:10070000D9FFE652BFDF0001896B8A6BAEDE0001C4
:100710008B6B8C6B8D6B8E6B0001885122E1A5DE9B
:100720000001030E886F81B004D0320E8B27000EBB
:100730008C23880ED8808B55130E8C5504E2880EBE
:100740008B6F130E8C6F81B204D0320E8B5F000E54
:100750008C5B880ED8808B55130E8C5502E28B6B08
:0A0760008C6B8FA1D9D7BEDFD7D76D
:06076A00060EF66E000E03
:10077000F76E000EF86E00010900F550956F090044
:10078000F550966F03E1956701D03DD00900F55013
:10079000906F0900F550916F0900F550926F0900B4
:1007A0000900F550E96E0900F550EA6E09000900EC
:1007B0000900F550936F0900F550946F0900090086
:1007C000F6CF97F0F7CF98F0F8CF99F090C0F6FFFA
:1007D00091C0F7FF92C0F8FF0001935302E19453D8
:1007E00007E00900F550EE6E9307F8E29407F9D799
:1007F00097C0F6FF98C0F7FF99C0F8FF0001950772
:08080000000E965BBFD7120049
:08080800036A026A100EE76E9C
:10081000D89006360736023603360B50025C0C5071
:10082000035805E30B50025E0C50035A062AE72ECC
:04083000F0D71200EB
:0C08340014EE00F024EE00F0F86A0F9CB7
:10084000B5EC03F036EC04F07DEC03F0FBD71200BE
:0E085000416C766F3D200052504D203D20003F
:02085E0000EEAA
:0C08600000F00F0EEE6AEA62FDD71200F5
:02086C00120078
:020000040030CA
:0100010001FD
:0100020018E5
:010003001EDE
:010005008377
:0100060001F8
:00000001FF
