:1000000000308A00382A00008E30A0003D08A10090
:100010003C08A200A301A108031D18282208A10082
:10002000A2010830A002A108031D1828A001202861
:100030000310A11B1F28A20DA10DA0031828A113B6
:100040000000003480308318C506CA01CB01410886
:10005000C9004508C906400803190F29C800A000B7
:10006000440803191829C8020319B528031C742869
:100070004508CE00CE174608CD004708CC00CB017E
:100080000310CE0CCD0CCC0CCB0CC80B3F28C91FD9
:100090004C284A142C294A1048104A164330840030
:1000A00041294A12C91B5E28481C6928CE0CCD0C78
:1000B000CC0CCB0CA00A031927296928CE1B6C286D
:1000C0000310CB0DCC0DCD0DCE0DA00303192729A8
:1000D0005E284A17D4284A134108C900C11F722854
:1000E000CE172029CE1320294408C800A0004008BC
:1000F000C8024108CE00CE174208CD004308CC000C
:10010000CB010310CE0CCD0CCC0CCB0CC80B802833
:10011000C91F8D28CA142C29CA104810CA16473086
:1001200084004129CA12C91B9F28481CAA28CE0C4A
:10013000CD0CCC0CCB0CA00A03192729AA28CE1B66
:10014000AD280310CB0DCC0DCD0DCE0DA0030319A2
:1001500027299F28CA17D428CA134508C900C51FD4
:10016000B328CE172029CE1320294508CE00CE175C
:100170004608CD004708CC00C91FC228CE134A1537
:100180002C294A11CB014810433084004129C91B56
:10019000EA284108C900481CD428CE0CCD0CCC0C50
:1001A000CB0CA00A03192729CB1FE528CC0A031D75
:1001B000E528CD0A031DE528CE0A031DE528CE0C4F
:1001C000CD0CCC0CA00A031927294A1B6B28CA1B8B
:1001D000AC2809298030CE06CE1FF2282C294508EC
:1001E000C900FF284108C900CE08031DFF28CD081B
:1001F000031DFF28CC08031DFF28A0012029CE1BCA
:1002000009290310CB0DCC0DCD0DCE0DA00BFF2871
:100210002729C91F0D29CE172029CE1320294408CC
:10022000A0004508CE004608CD004708CC00202994
:100230004008A0004108CE004208CD004308CC0091
:100240004E08A1004D08A2004C08A3005F29A001A0
:10025000A101A201A3015F29CB01CC09CD09CE09DF
:10026000CB09CB0A031D3A29CC0A031D3A29CD0A32
:100270000319CE0A4A184B28CA188C284A19C128D3
:10028000EF280008CC07031C4B29CD0A031D4B297E
:10029000CE0A0319481484030008CD07031C532910
:1002A000CE0A0319481484030008801F803ACE0741
:1002B000031848144A1A5128CA1A9228C72800005D
:1002C00000343C080319D129C40040080319D1297E
:1002D000C407031872297F30C402031CD1290319F3
:1002E000D12976298130C4070318D1294408A000F8
:1002F000A101A201A3013D08C800C8173E08C7001C
:100300003F08C6001830C400C501461C9F29430899
:10031000A307031C9129A20A031D9129A10A03190D
:10032000C5174208A207031C9829A10A0319C5177B
:100330004108BE00BE173E08A1070318C517C50D2A
:10034000A10CA20CA30CC80CC70CC60C0310C40B48
:1003500084290130A0070318D129A11BB629C80D93
:10036000A30DA20DA10DA0030319D129C81FC729F0
:10037000A30A031DC729A20A031DC729A10A031D39
:10038000C729A10CA20CA30CA00A0319D1293D086E
:10039000C5004108C506C51FCF29A117D529A1133E
:1003A000D529A001A101A201A30100008A11C22A3E
:1003B0008E30A0003C08A0023D08A2003E08A1002B
:1003C000A217A0080319EF290310A208031DEB29A7
:1003D000A1080319EF29A20CA10CA00BE429BD1F51
:1003E000F629A109A209A10A0319A20A00008A118B
:1003F000ED2A3D08C4004108C406C41F042A0311A5
:100400000310BD1B0314372A3D08C4004008C50073
:100410003C08C5020319122AC41F372A0308013AEF
:100420008300372A4108C5003D08C50203191E2A6A
:10043000C41F372A0308013A8300372A4208C5003F
:100440003E08C50203192A2AC41F372A0308013AA5
:100450008300372A4308C5003F08C5020319362A1E
:10046000C41F372A0308013A8300372A03100034D7
:1004700084011F30830583161F149F141F159F11BD
:10048000FF308312A500A601A701A801A901AA01B6
:10049000AB01AC01AD01AE01AF01B001B101B201E0
:1004A000B301B401B501B6017F30B700B801B9019D
:1004B000BA01BB0183161F109F101F119F118312D9
:1004C0001F179F1783169F1383121F140030A1005C
:1004D0001F08C73921049F000030A1000538920091
:1004E0004130831692008312251125088316870058
:1004F000831207110C309700C23083168F04083026
:100500008312A000A00B822A1F151F19852A1E081E
:10051000BD01BC0004202308BB002208BA0021084A
:10052000B9002008B800BD013708BC0004208314BE
:100530002308C3002208C2002108C1002008C0000F
:100540003B08C7003A08C6003908C5003808C4008F
:1005500022202308A9002208A8002108A7002008BB
:10056000A600F530BF006730BE003F30BD007B30D5
:10057000BC002D08C3002C08C2002B08C1002A08AB
:10058000C00061292008BC002108BD002208BE006F
:100590002308BF0083102308C3002208C2002108DB
:1005A000C1002008C0003508C7003408C600330861
:1005B000C5003208C40022202308B1002208B00080
:1005C0002108AF002008AE003108BF003008BE008F
:1005D0002F08BD002E08BC00D8292108B600BF0195
:1005E000BE017F30BD008630BC003B08C3003A0826
:1005F000C2003908C1003808C000F921031C062BCD
:10060000BB01BA017F30B9008630B8003B08BF009B
:100610003A08BE003908BD003808BC00C301C20159
:10062000C101C001F921031C192BBB01BA01B90199
:10063000B801360895003108B5003008B4002F081D
:10064000B3002E08B2002908AD002808AC00270826
:0A065000AB002608AA00842A63000C
:02400E00F93F78
:00000001FF
;PIC16F874
