:020000040000FA
:06000000B3EF02F0120054
:020006000000F8
:080008000F9E08D00F9E07AE09
:1000100005D0066C071EE86A07220F8E07C001F0A4
:1000200006C000F0136A126A8E0E026E036A24EF95
:1000300001F00F6A60EC01F078EC01F00FB608EF08
:1000400001F00FA205D00FBA08EF01F00FEF01F099
:100050000FBA1BEF01F00FA005D00FB808EF01F0A9
:100060001BEF01F00FB80FEF01F0036A7F0E0824B9
:10007000026EE86A03220D50025EE86A035A1A0E05
:10008000106E086A126A136A006A016A0A50055EF5
:100090000B50065A0C50075A000E085A09E70A502E
:1000A00005260B5006220C500722000E082201D014
:1000B000128AD8900536063607360836D89012369A
:1000C000133600360136102EE1D707500610051002
:1000D000D8A4128A24EF01F00F6A60EC01F078ECEA
:1000E00001F00FB608EF01F00FA205D00FB808EF2E
:1000F00001F00FEF01F00FAA05D00FB008EF01F0EB
:100100000FEF01F00FB002D00FA802D01BEF01F0EB
:10011000036A0D500824026EE86A03227E0E025E16
:10012000E86A035A126A136A006A016A0C500702ED
:10013000F4CF01F0F3CF00F00B500702F350132679
:10014000F4500022000E01220C500602F350132638
:10015000F4500022000E01220A500702F35012262A
:10016000F4501322000E002201220B500602F3501D
:100170001226F4501322000E002201220C50050218
:10018000F3501226F4501322000E002201220A50CE
:100190000602F4501226000E1322002201220B50F8
:1001A0000502F4501226000E13220022012224EF31
:1001B00001F00F6A60EC01F00FB6E3EF00F00FA260
:1001C0000ED00FB405D07F0E076EFF0E066E1FD047
:1001D000800E076E066A1BD0076A066A18D00FB039
:1001E000FBD78F0E0860EDD77E0E0864F5D78E0E14
:1001F000085C05E0D89007320632082AF8D70FA429
:1002000006D0066C071EE86A072207AEE5D7120083
:100210007F0E086EFF0E076E066E056E12007F0ED3
:100220000FBEFF0E086E02D07F0E086E800E076EA6
:10023000066A056AF3D70FAE04D0800E086E076A0F
:10024000F7D7086A076AF4D701500010131012108C
:10025000F8E003BEF0D701BE0CD002500310EBE073
:10026000D89012361336003601360206D8A003069F
:10027000F2D70350D4E10228D2E012AE11D07F0EA3
:10028000121402E113A00CD0132AE86A0022012202
:1002900007E3D880013200321332022A0228BFE07D
:1002A0000250C9E013C005F000C006F00134076E2B
:1002B0000230086E0732089E0FBE088E0EEF01F066
:1002C0000736083602E30F840F7E06E10F80086AC6
:1002D000076A066A056A1200082803E0D880073218
:1002E0001200D890073202E10F8212000F8612002E
:1002F0000C360D3602E30F8C0F7E06E10F880D6A77
:100300000C6A0B6A0A6A12000D2803E0D8800C32CE
:0C0310001200D8900C32EAE10F8A1200B3
:04031C00D9CFE6FF50
:10032000E1CFD9FFE652DF6A1D0EDF5C02E2DF2A71
:10033000FBD7DF6ADF6AE552E552E7CFD9FF12004B
:1003400000018A6B8B6B83B0FED783A0FED783A09E
:1003500006D0E4DF00018A2B000E8B23F8D783B090
:1003600006D0DCDF00018A2B000E8B23F8D71200A9
:10037000146A156A800E166E3F0E176E8AC006F05C
:100380008BC007F004EC00F005C01CF006C01DF0A7
:1003900007C01EF008C01FF0170E0A6EB70E0B6ED6
:1003A000D10E0C6E380E0D6E1CC005F01DC006F08F
:1003B0001EC007F01FC008F06CEC00F005C018F07C
:1003C00006C019F007C01AF008C01BF018C00AF0E8
:1003D00019C00BF01AC00CF01BC00DF014C005F0D2
:1003E00015C006F016C007F017C008F019EC00F0B1
:1003F000D9EC00F006C08CF007C08DF012000001AF
:10040000630ED8808C55000E8D5505E30A0E8C5D69
:10041000000E8D5903E2EE0E826E27D00A0E146E86
:10042000156A8CC006F08DC007F014C00BF015C023
:100430000CF08DEC02F006C08EF08CC014F08DC074
:1004400015F00A0E0B6E0C6A14C006F015C007F00A
:100450008DEC02F002C014F003C015F014C08FF050
:1004600000018E39F00B8F11826E12009580946A14
:0C04700055DF66DF7DDFC3DFFCD7120024
:04047C00060EF66E04
:10048000000EF76E000EF86E00010900F550856F42
:100490000900F550866F03E1856701D03DD0090062
:1004A000F550806F0900F550816F0900F550826F9B
:1004B00009000900F550E96E0900F550EA6E0900DF
:1004C00009000900F550836F0900F550846F090099
:1004D0000900F6CF87F0F7CF88F0F8CF89F080C019
:1004E000F6FF81C0F7FF82C0F8FF0001835302E1ED
:1004F000845307E00900F550EE6E8307F8E28407A5
:10050000F9D787C0F6FF88C0F7FF89C0F8FF000160
:0A0510008507000E865BBFD71200BE
:06051A00036A026A100EE4
:10052000E76ED89006360736023603360B50025C6B
:100530000C50035805E30B50025E0C50035A062A78
:06054000E72EF0D71200C7
:0A054600000EF36E00EE00F0060E4A
:1005500001D81200EA6002D0EE6AFCD7F350E960DD
:060560001200EE6AFCD758
:0A05660015EE00F025EE00F0F86A33
:100570000F9C3EEC02F0C1EC02F036EC02F0FBD72F
:02058000120067
:02058200120065
:00000001FF
