:020000040000FA
:0600000086EF03F0120080
:020006000000F8
:080008009EBA3AD19EB869D1FD
:020010001200DC
:0E001200D9CFE6FFE1CFD9FFE652FE0EDB505C
:1000200009E0C80EDF6EDF5002E0DF06FCD7FE0EEF
:10003000DB06F4D7E552E552E7CFD9FF1200D9CF5E
:10004000E6FFE1CFD9FFE652FE0EDB50E8B08D802F
:10005000E8A08D90FD0EDB508C6E8D82640EDF6EFD
:10006000DF5002E0DF06FCD78D92640EDF6EDF50BA
:1000700002E0DF06FCD7E552E552E7CFD9FF1200D8
:10008000D9CFE6FFE1CFD9FFE652956A96909692D6
:100090008C6A8D908D92320EE66EBBDFE552DF6A80
:1000A000030EDF5C0CE2300EE66EE66AC8DFE55256
:1000B000E552050EE66EADDFE552DF2AF1D7FE0E02
:1000C000DB503009E66EE66ABADFE552E552080E0B
:1000D000E66EE66AB4DFE552E552010EE66EE66AC8
:1000E000AEDFE552E552060EE66EE66AA8DFE5529F
:1000F000E552FD0EDB500809E66EE66AA0DFE55228
:10010000E552FD0EDB5008090001806FE552E55213
:10011000E7CFD9FF1200D9CFE6FFE1CFD9FFE652F2
:10012000FD0EDB5003E0400EDF6E01D0DF6AFE0EF5
:10013000DB50DF26800EDF10E66EE66A80DFE552D8
:10014000E552E552E552E7CFD9FF1200D9CFE6FFDD
:10015000E1CFD9FFFE0EDB500A0A0EE0070A0CE0E1
:10016000010A0EE1010EE66EE66A69DFE552E5522C
:10017000050EE66E4EDF0BD0E66AE66ACCDF06D0EF
:10018000FE0EDBCFE6FF010EE66E59DFE552E552CB
:10019000E552E7CFD9FF1200D9CFE6FFE1CFD9FF73
:1001A000FD0EDBCFF6FFFE0EDBCFF7FF0800F550AC
:1001B0000FE0FD0EDBCFF6FFDB2AFE0EDBCFF7FFF5
:1001C00001E3DB2A0800F550E66EC0DFE552E8D710
:1001D000E552E7CFD9FF1200D9CFE6FFE1CFD9FF33
:1001E000FD0EDBCFE9FFFE0EDBCFEAFFEF500EE0A6
:1001F000FD0EDBCFE9FFDB2AFE0EDBCFEAFF01E3DA
:10020000DB2AEF50E66EA2DFE552EAD7E552E7CFF0
:10021000D9FF12000001808580C0E6FFE66A0FDF8B
:10022000E552E55212000001809580C0E6FFE66AC3
:1002300006DFE552E55212000001808380C0E6FF30
:10024000E66AFDDEE552E55212000001809380C0AF
:10025000E6FFE66AF4DEE552E55212000001808115
:1002600080C0E6FFE66AEBDEE552E55212000001CF
:10027000809180C0E6FFE66AE2DEE552E5521200B8
:10028000DACFE4FFE2CFDAFFE9CFE4FFEACFE4FF21
:10029000E652D9CFE6FFE1CFD9FFE652AB50DF6E91
:1002A000060EDF1403E0AB98AB880FD00001C451F9
:1002B000C42BEA6AA10FE96E000EEA22AECFEFFF6F
:1002C000200EC45D01E3C46BC581E552E552E7CF62
:1002D000D9FFE552E5CFEAFFE5CFE9FFE5CFDAFF49
:1002E0001100DACFE4FFE9CFE4FFEACFE4FFE65202
:1002F0000001C251C15D03E19D98C5830FD09EA846
:100300000DD0C151C12BEA6A810FE96E000EEA22BD
:10031000EF50AD6E200EC15D01E3C16BE552E5CF3C
:10032000EAFFE5CFE9FFE5CFDAFF1100D9CFE6FF1D
:10033000E1CFD9FF0001C151C25D03E1C551020BFC
:10034000F9E0C593C251C22BEA6A810FE96E000E33
:10035000EA22FE0EDBCFEFFF200EC25D01E3C26B8F
:100360009D88E552E7CFD9FF1200D9CFE6FFE1CF54
:10037000D9FFFD0EDBCFE9FFFE0EDBCFEAFFEF502A
:100380000EE0FD0EDBCFE9FFDB2AFE0EDBCFEAFF3E
:1003900001E3DB2AEF50E66EC9DFE552EAD7E5520A
:1003A000E7CFD9FF1200D9CFE6FFE1CFD9FFFD0E8D
:1003B000DBCFF6FFFE0EDBCFF7FF0800F5500FE0B6
:1003C000FD0EDBCFF6FFDB2AFE0EDBCFF7FF01E3EE
:1003D000DB2A0800F550E66EA9DFE552E8D7E552C2
:1003E000E7CFD9FF1200D9CFE6FFE1CFD9FFE65220
:1003F0000001C351C32BEA6AA10FE96E000EEA2285
:10040000EFCFDFFF200EC35D01E3C36B9D9AC451A4
:10041000C35D01E1C5919D8ADF50E552E552E7CF0A
:10042000D9FF1200000E8C6E8A6E896E020E926EDB
:10043000030E936E810E946E956A070EB46E0F0EC6
:10044000C16E240EAC6E900EAB6E190EAF6E300EF8
:100450009D6EC00EF26E040EE66E080EE66E10DEA5
:10046000E552E5520C0EE66E71DEE5520001C583E1
:1004700012005B0EE66E060EE66E95DFE552E55263
:100480003E0EE66E060EE66E8EDFE552E552310E4A
:10049000E66E060EE66E87DFE552E5521F0EE66E4B
:1004A000060EE66E80DFE552E5520A0EE66E060E97
:1004B000E66E79DFE552E552F80EE66E050EE66E61
:1004C00072DFE552E552E30EE66E050EE66E6BDF77
:1004D000E552E552D30EE66E050EE66E64DFE55298
:1004E000E552C00EE66E050EE66E5DDFE552E552A2
:1004F0001200D9CFE6FFE1CFD9FFE652DF6A81B023
:1005000002D0010EDF6E81B202D0020EDF6EDF502C
:100510000001CC5D02E1000E03D0DFCFCCF0DF5054
:10052000E552E552E7CFD9FF1200D9CFE6FFE1CF80
:10053000D9FFE65277DF9DDF0001C5A120D053DF50
:10054000DF6EDF50360A15E0030A10E0010A0CE006
:10055000070A08E0010A04E0030A0DE18A840FD0CB
:100560008A940DD08A860BD08A9609D00C0EE66E3E
:1005700004D07FDF04D0DFCFE6FFE8DDE552B9DF4E
:10058000DF6EDF0407E1B50EE66E050EE66E0BDFEB
:10059000E552E552020EDF5CCFE1AA0EE66E050ED3
:0A05A000E66E01DFE552E552C7D711
:0605AA005465636C612042
:1005B00053320D0A005465636C612053310D0A00FB
:1005C000362D20496D7072696D6972206D656E758A
:1005D0000D0A00352D204C696D706172204C43442A
:1005E0000D0A00342D204465736C69676172206CBC
:1005F0006564204C340D0A00332D204C696761720C
:10060000206C6564204C340D0A00322D2044657343
:100610006C69676172206C6564204C330D0A00318F
:100620002D204C69676172206C6564204C330D0A83
:10063000005072657373696F6E653A0D0A005465F8
:100640007374652064612045555341525420636F93
:100650006D206275666665720D0A00504943313837
:0D06600020446574616C6861646F0D0A00D0
:02066E00060E76
:10067000F66E000EF76E000EF86E00010900F550E0
:10068000D26F0900F550D36F03E1D26701D03DD09E
:100690000900F550CD6F0900F550CE6F0900F550F7
:1006A000CF6F09000900F550E96E0900F550EA6EB8
:1006B000090009000900F550D06F0900F550D16F0D
:1006C00009000900F6CFD4F0F7CFD5F0F8CFD6F077
:1006D000CDC0F6FFCEC0F7FFCFC0F8FF0001D0536A
:1006E00002E1D15307E00900F550EE6ED007F8E2C1
:1006F000D107F9D7D4C0F6FFD5C0F7FFD6C0F8FFB1
:0C0700000001D207000ED35BBFD712002F
:04070C0014EE00F0F7
:1007100024EE00F0F86A019C37EC03F09BEC03F048
:0807200095EC02F0FBD712007A
:0807280000EE00F00F0EEE6A76
:06073000EA62FDD7120091
:020736001200AF
:020000040030CA
:0100010001FD
:0100020018E5
:010003001EDE
:010005008377
:0100060001F8
:00000001FF
