:020000040000FA
:060000004EEF01F01200BA
:020006000000F8
:08000800D9CFE6FFE1CFD9FFDB
:10001000020EE126DE6ADD6ADECF00F0DDCF01F000
:100020006C0E005C000E015805E2DF2A010E01E3B0
:10003000DB2AF2D7020EE15C02E2E16AE552E16EF0
:10004000E552E7CFD9FF1200D9CFE6FFE1CFD9FFC4
:10005000020EE126DE6ADD6ADECF00F0DDCF01F0C0
:10006000350E005C000E015805E2DF2A010E01E3A7
:10007000DB2AF2D7020EE15C02E2E16AE552E16EB0
:10008000E552E7CFD9FF1200D9CFE6FFE1CFD9FF84
:10009000040EE126010EDE6EDD6A020EDB6A030E3F
:1000A000DB6A8280B1DF8290AFDF020EDB6A030E73
:1000B000DB6AD950020FE96EDACFEAFF070ED8806B
:1000C000EE54000EED541FE3FE0EDBCF02F0036A88
:1000D00002BE0368DE500214006EDD500314016E90
:1000E0000050E8B08280E8A082908EDFFE0EDB40F8
:1000F0007F0BE76EFE0EE7CFDBFF020EDB2A030E5F
:1001000001E3DB2AD6D782807FDF040EE15C02E2C6
:10011000E16AE552E16EE552E7CFD9FF1200D9CF8F
:10012000E6FFE1CFD9FF050EE126DF6ADE52010EC0
:10013000DD6E020EDB6A68DF87DF82B2FED764DF26
:10014000030EDB6A040EDB6A030EDBCF00F0040E45
:10015000DBCF01F0D890015004E6070E005C000EE2
:10016000015827E28250020B01E0010EF36E030EEC
:10017000DB5004E0D890F336E806FCE1F350E76E7C
:10018000020EE7CFDBFF010EDBCFE6FF020EDB50F6
:10019000E552E714DF24DF6E010EDB50020D010E85
:1001A000F3CFDBFF31DF030EDB2A040E01E3DB2A92
:1001B000CBD7DF50006E050EE15C03E200D0E16AB0
:1001C000E552E16E0050E552E7CFD9FF120094905E
:0E01D0009482A5DFE66E58DFE552FBD71200E1
:0201DE00060E0B
:1001E000F66E000EF76E000EF86E00010900F55075
:1001F000856F0900F550866F03E1856701D03DD01A
:100200000900F550806F0900F550816F0900F55025
:10021000826F09000900F550E96E0900F550EA6E99
:10022000090009000900F550836F0900F550846F3B
:1002300009000900F6CF87F0F7CF88F0F8CF89F0F2
:1002400080C0F6FF81C0F7FF82C0F8FF0001835332
:1002500002E1845307E00900F550EE6E8307F8E2EF
:100260008407F9D787C0F6FF88C0F7FF89C0F8FF79
:0C02700000018507000E865BBFD712005E
:04027C00000EF36E0F
:1002800000EE00F0060E01D81200EA6002D0EE6A1D
:0C029000FCD7F350E9601200EE6AFCD7C6
:04029C0015EE00F06B
:1002A00025EE00F0F86A059CEFEC00F05CEC01F044
:0802B000E7EC00F0FBD712009F
:0202B800120032
:00000001FF
